{
  "_format": "hh-sol-artifact-1",
  "contractName": "FiatToken",
  "sourceName": "contracts/FiatToken.sol",
  "abi": [
    {
      "inputs": [],
      "stateMutability": "nonpayable",
      "type": "constructor"
    },
    {
      "inputs": [
        {
          "internalType": "address",
          "name": "spender",
          "type": "address"
        },
        {
          "internalType": "uint256",
          "name": "allowance",
          "type": "uint256"
        },
        {
          "internalType": "uint256",
          "name": "needed",
          "type": "uint256"
        }
      ],
      "name": "ERC20InsufficientAllowance",
      "type": "error"
    },
    {
      "inputs": [
        {
          "internalType": "address",
          "name": "sender",
          "type": "address"
        },
        {
          "internalType": "uint256",
          "name": "balance",
          "type": "uint256"
        },
        {
          "internalType": "uint256",
          "name": "needed",
          "type": "uint256"
        }
      ],
      "name": "ERC20InsufficientBalance",
      "type": "error"
    },
    {
      "inputs": [
        {
          "internalType": "address",
          "name": "approver",
          "type": "address"
        }
      ],
      "name": "ERC20InvalidApprover",
      "type": "error"
    },
    {
      "inputs": [
        {
          "internalType": "address",
          "name": "receiver",
          "type": "address"
        }
      ],
      "name": "ERC20InvalidReceiver",
      "type": "error"
    },
    {
      "inputs": [
        {
          "internalType": "address",
          "name": "sender",
          "type": "address"
        }
      ],
      "name": "ERC20InvalidSender",
      "type": "error"
    },
    {
      "inputs": [
        {
          "internalType": "address",
          "name": "spender",
          "type": "address"
        }
      ],
      "name": "ERC20InvalidSpender",
      "type": "error"
    },
    {
      "inputs": [
        {
          "internalType": "address",
          "name": "owner",
          "type": "address"
        }
      ],
      "name": "OwnableInvalidOwner",
      "type": "error"
    },
    {
      "inputs": [
        {
          "internalType": "address",
          "name": "account",
          "type": "address"
        }
      ],
      "name": "OwnableUnauthorizedAccount",
      "type": "error"
    },
    {
      "anonymous": false,
      "inputs": [
        {
          "indexed": true,
          "internalType": "address",
          "name": "owner",
          "type": "address"
        },
        {
          "indexed": true,
          "internalType": "address",
          "name": "spender",
          "type": "address"
        },
        {
          "indexed": false,
          "internalType": "uint256",
          "name": "value",
          "type": "uint256"
        }
      ],
      "name": "Approval",
      "type": "event"
    },
    {
      "anonymous": false,
      "inputs": [
        {
          "indexed": true,
          "internalType": "address",
          "name": "previousOwner",
          "type": "address"
        },
        {
          "indexed": true,
          "internalType": "address",
          "name": "newOwner",
          "type": "address"
        }
      ],
      "name": "OwnershipTransferred",
      "type": "event"
    },
    {
      "anonymous": false,
      "inputs": [
        {
          "indexed": true,
          "internalType": "address",
          "name": "from",
          "type": "address"
        },
        {
          "indexed": true,
          "internalType": "address",
          "name": "to",
          "type": "address"
        },
        {
          "indexed": false,
          "internalType": "uint256",
          "name": "value",
          "type": "uint256"
        }
      ],
      "name": "Transfer",
      "type": "event"
    },
    {
      "inputs": [],
      "name": "TOKEN_DECIMALS",
      "outputs": [
        {
          "internalType": "uint8",
          "name": "",
          "type": "uint8"
        }
      ],
      "stateMutability": "view",
      "type": "function"
    },
    {
      "inputs": [],
      "name": "TOKEN_NAME",
      "outputs": [
        {
          "internalType": "string",
          "name": "",
          "type": "string"
        }
      ],
      "stateMutability": "view",
      "type": "function"
    },
    {
      "inputs": [],
      "name": "TOKEN_SYMBOL",
      "outputs": [
        {
          "internalType": "string",
          "name": "",
          "type": "string"
        }
      ],
      "stateMutability": "view",
      "type": "function"
    },
    {
      "inputs": [
        {
          "internalType": "address",
          "name": "owner",
          "type": "address"
        },
        {
          "internalType": "address",
          "name": "spender",
          "type": "address"
        }
      ],
      "name": "allowance",
      "outputs": [
        {
          "internalType": "uint256",
          "name": "",
          "type": "uint256"
        }
      ],
      "stateMutability": "view",
      "type": "function"
    },
    {
      "inputs": [
        {
          "internalType": "address",
          "name": "spender",
          "type": "address"
        },
        {
          "internalType": "uint256",
          "name": "value",
          "type": "uint256"
        }
      ],
      "name": "approve",
      "outputs": [
        {
          "internalType": "bool",
          "name": "",
          "type": "bool"
        }
      ],
      "stateMutability": "nonpayable",
      "type": "function"
    },
    {
      "inputs": [
        {
          "internalType": "address",
          "name": "account",
          "type": "address"
        }
      ],
      "name": "balanceOf",
      "outputs": [
        {
          "internalType": "uint256",
          "name": "",
          "type": "uint256"
        }
      ],
      "stateMutability": "view",
      "type": "function"
    },
    {
      "inputs": [
        {
          "internalType": "uint256",
          "name": "burnAmount",
          "type": "uint256"
        }
      ],
      "name": "burn",
      "outputs": [
        {
          "internalType": "bool",
          "name": "",
          "type": "bool"
        }
      ],
      "stateMutability": "nonpayable",
      "type": "function"
    },
    {
      "inputs": [],
      "name": "collectUSDC",
      "outputs": [
        {
          "internalType": "bool",
          "name": "",
          "type": "bool"
        }
      ],
      "stateMutability": "nonpayable",
      "type": "function"
    },
    {
      "inputs": [],
      "name": "decimals",
      "outputs": [
        {
          "internalType": "uint8",
          "name": "",
          "type": "uint8"
        }
      ],
      "stateMutability": "view",
      "type": "function"
    },
    {
      "inputs": [
        {
          "internalType": "uint256",
          "name": "mintAmount",
          "type": "uint256"
        }
      ],
      "name": "mint",
      "outputs": [
        {
          "internalType": "bool",
          "name": "",
          "type": "bool"
        }
      ],
      "stateMutability": "nonpayable",
      "type": "function"
    },
    {
      "inputs": [],
      "name": "name",
      "outputs": [
        {
          "internalType": "string",
          "name": "",
          "type": "string"
        }
      ],
      "stateMutability": "view",
      "type": "function"
    },
    {
      "inputs": [],
      "name": "owner",
      "outputs": [
        {
          "internalType": "address",
          "name": "",
          "type": "address"
        }
      ],
      "stateMutability": "view",
      "type": "function"
    },
    {
      "inputs": [],
      "name": "renounceOwnership",
      "outputs": [],
      "stateMutability": "nonpayable",
      "type": "function"
    },
    {
      "inputs": [
        {
          "internalType": "address",
          "name": "",
          "type": "address"
        }
      ],
      "name": "spenderApproved",
      "outputs": [
        {
          "internalType": "bool",
          "name": "",
          "type": "bool"
        }
      ],
      "stateMutability": "view",
      "type": "function"
    },
    {
      "inputs": [],
      "name": "symbol",
      "outputs": [
        {
          "internalType": "string",
          "name": "",
          "type": "string"
        }
      ],
      "stateMutability": "view",
      "type": "function"
    },
    {
      "inputs": [],
      "name": "totalSupply",
      "outputs": [
        {
          "internalType": "uint256",
          "name": "",
          "type": "uint256"
        }
      ],
      "stateMutability": "view",
      "type": "function"
    },
    {
      "inputs": [
        {
          "internalType": "address",
          "name": "to",
          "type": "address"
        },
        {
          "internalType": "uint256",
          "name": "value",
          "type": "uint256"
        }
      ],
      "name": "transfer",
      "outputs": [
        {
          "internalType": "bool",
          "name": "",
          "type": "bool"
        }
      ],
      "stateMutability": "nonpayable",
      "type": "function"
    },
    {
      "inputs": [
        {
          "internalType": "address",
          "name": "from",
          "type": "address"
        },
        {
          "internalType": "address",
          "name": "to",
          "type": "address"
        },
        {
          "internalType": "uint256",
          "name": "value",
          "type": "uint256"
        }
      ],
      "name": "transferFrom",
      "outputs": [
        {
          "internalType": "bool",
          "name": "",
          "type": "bool"
        }
      ],
      "stateMutability": "nonpayable",
      "type": "function"
    },
    {
      "inputs": [
        {
          "internalType": "address",
          "name": "newOwner",
          "type": "address"
        }
      ],
      "name": "transferOwnership",
      "outputs": [],
      "stateMutability": "nonpayable",
      "type": "function"
    }
  ],
  "bytecode": "0x60806040523480156200001157600080fd5b50336040518060400160405280600481526020017f55534443000000000000000000000000000000000000000000000000000000008152506040518060400160405280600481526020017f5553444300000000000000000000000000000000000000000000000000000000815250816003908162000090919062000761565b508060049081620000a2919062000761565b505050600073ffffffffffffffffffffffffffffffffffffffff168173ffffffffffffffffffffffffffffffffffffffff16036200011a5760006040517f1e4fbdf70000000000000000000000000000000000000000000000000000000081526004016200011191906200088d565b60405180910390fd5b6200012b816200016460201b60201c565b506200015e306006600a62000141919062000a3a565b633b9aca0062000152919062000a8b565b6200022a60201b60201c565b62000b7c565b6000600560009054906101000a900473ffffffffffffffffffffffffffffffffffffffff16905081600560006101000a81548173ffffffffffffffffffffffffffffffffffffffff021916908373ffffffffffffffffffffffffffffffffffffffff1602179055508173ffffffffffffffffffffffffffffffffffffffff168173ffffffffffffffffffffffffffffffffffffffff167f8be0079c531659141344cd1fd0a4f28419497f9722a3daafe3b4186f6b6457e060405160405180910390a35050565b600073ffffffffffffffffffffffffffffffffffffffff168273ffffffffffffffffffffffffffffffffffffffff16036200029f5760006040517fec442f050000000000000000000000000000000000000000000000000000000081526004016200029691906200088d565b60405180910390fd5b620002b360008383620002b760201b60201c565b5050565b600073ffffffffffffffffffffffffffffffffffffffff168373ffffffffffffffffffffffffffffffffffffffff16036200030d57806002600082825462000300919062000ad6565b92505081905550620003e3565b60008060008573ffffffffffffffffffffffffffffffffffffffff1673ffffffffffffffffffffffffffffffffffffffff168152602001908152602001600020549050818110156200039c578381836040517fe450d38c000000000000000000000000000000000000000000000000000000008152600401620003939392919062000b22565b60405180910390fd5b8181036000808673ffffffffffffffffffffffffffffffffffffffff1673ffffffffffffffffffffffffffffffffffffffff16815260200190815260200160002081905550505b600073ffffffffffffffffffffffffffffffffffffffff168273ffffffffffffffffffffffffffffffffffffffff16036200042e57806002600082825403925050819055506200047b565b806000808473ffffffffffffffffffffffffffffffffffffffff1673ffffffffffffffffffffffffffffffffffffffff168152602001908152602001600020600082825401925050819055505b8173ffffffffffffffffffffffffffffffffffffffff168373ffffffffffffffffffffffffffffffffffffffff167fddf252ad1be2c89b69c2b068fc378daa952ba7f163c4a11628f55a4df523b3ef83604051620004da919062000b5f565b60405180910390a3505050565b600081519050919050565b7f4e487b7100000000000000000000000000000000000000000000000000000000600052604160045260246000fd5b7f4e487b7100000000000000000000000000000000000000000000000000000000600052602260045260246000fd5b600060028204905060018216806200056957607f821691505b6020821081036200057f576200057e62000521565b5b50919050565b60008190508160005260206000209050919050565b60006020601f8301049050919050565b600082821b905092915050565b600060088302620005e97fffffffffffffffffffffffffffffffffffffffffffffffffffffffffffffffff82620005aa565b620005f58683620005aa565b95508019841693508086168417925050509392505050565b6000819050919050565b6000819050919050565b6000620006426200063c62000636846200060d565b62000617565b6200060d565b9050919050565b6000819050919050565b6200065e8362000621565b620006766200066d8262000649565b848454620005b7565b825550505050565b600090565b6200068d6200067e565b6200069a81848462000653565b505050565b5b81811015620006c257620006b660008262000683565b600181019050620006a0565b5050565b601f8211156200071157620006db8162000585565b620006e6846200059a565b81016020851015620006f6578190505b6200070e62000705856200059a565b8301826200069f565b50505b505050565b600082821c905092915050565b6000620007366000198460080262000716565b1980831691505092915050565b600062000751838362000723565b9150826002028217905092915050565b6200076c82620004e7565b67ffffffffffffffff811115620007885762000787620004f2565b5b62000794825462000550565b620007a1828285620006c6565b600060209050601f831160018114620007d95760008415620007c4578287015190505b620007d0858262000743565b86555062000840565b601f198416620007e98662000585565b60005b828110156200081357848901518255600182019150602085019450602081019050620007ec565b868310156200083357848901516200082f601f89168262000723565b8355505b6001600288020188555050505b505050505050565b600073ffffffffffffffffffffffffffffffffffffffff82169050919050565b6000620008758262000848565b9050919050565b620008878162000868565b82525050565b6000602082019050620008a460008301846200087c565b92915050565b7f4e487b7100000000000000000000000000000000000000000000000000000000600052601160045260246000fd5b60008160011c9050919050565b6000808291508390505b6001851115620009385780860481111562000910576200090f620008aa565b5b6001851615620009205780820291505b80810290506200093085620008d9565b9450620008f0565b94509492505050565b60008262000953576001905062000a26565b8162000963576000905062000a26565b81600181146200097c57600281146200098757620009bd565b600191505062000a26565b60ff8411156200099c576200099b620008aa565b5b8360020a915084821115620009b657620009b5620008aa565b5b5062000a26565b5060208310610133831016604e8410600b8410161715620009f75782820a905083811115620009f157620009f0620008aa565b5b62000a26565b62000a068484846001620008e6565b9250905081840481111562000a205762000a1f620008aa565b5b81810290505b9392505050565b600060ff82169050919050565b600062000a47826200060d565b915062000a548362000a2d565b925062000a837fffffffffffffffffffffffffffffffffffffffffffffffffffffffffffffffff848462000941565b905092915050565b600062000a98826200060d565b915062000aa5836200060d565b925082820262000ab5816200060d565b9150828204841483151762000acf5762000ace620008aa565b5b5092915050565b600062000ae3826200060d565b915062000af0836200060d565b925082820190508082111562000b0b5762000b0a620008aa565b5b92915050565b62000b1c816200060d565b82525050565b600060608201905062000b3960008301866200087c565b62000b48602083018562000b11565b62000b57604083018462000b11565b949350505050565b600060208201905062000b76600083018462000b11565b92915050565b611a668062000b8c6000396000f3fe608060405234801561001057600080fd5b50600436106101215760003560e01c80635b7f415c116100ad57806395d89b411161007157806395d89b4114610310578063a0712d681461032e578063a9059cbb1461035e578063dd62ed3e1461038e578063f2fde38b146103be57610121565b80635b7f415c1461027c578063657d70ad1461029a57806370a08231146102b8578063715018a6146102e85780638da5cb5b146102f257610121565b806323b872dd116100f457806323b872dd146101b05780632a905318146101e0578063313ce567146101fe57806342966c681461021c57806354dfc2261461024c57610121565b806306fdde0314610126578063095ea7b31461014457806318160ddd146101745780631882140014610192575b600080fd5b61012e6103da565b60405161013b9190611265565b60405180910390f35b61015e60048036038101906101599190611320565b61046c565b60405161016b919061137b565b60405180910390f35b61017c61048f565b60405161018991906113a5565b60405180910390f35b61019a610499565b6040516101a79190611265565b60405180910390f35b6101ca60048036038101906101c591906113c0565b6104d2565b6040516101d7919061137b565b60405180910390f35b6101e8610501565b6040516101f59190611265565b60405180910390f35b61020661053a565b604051610213919061142f565b60405180910390f35b6102366004803603810190610231919061144a565b610543565b604051610243919061137b565b60405180910390f35b61026660048036038101906102619190611477565b610636565b604051610273919061137b565b60405180910390f35b610284610656565b604051610291919061142f565b60405180910390f35b6102a261065b565b6040516102af919061137b565b60405180910390f35b6102d260048036038101906102cd9190611477565b6106bf565b6040516102df91906113a5565b60405180910390f35b6102f0610707565b005b6102fa61071b565b60405161030791906114b3565b60405180910390f35b610318610745565b6040516103259190611265565b60405180910390f35b6103486004803603810190610343919061144a565b6107d7565b604051610355919061137b565b60405180910390f35b61037860048036038101906103739190611320565b6108cb565b604051610385919061137b565b60405180910390f35b6103a860048036038101906103a391906114ce565b6108ee565b6040516103b591906113a5565b60405180910390f35b6103d860048036038101906103d39190611477565b610975565b005b6060600380546103e99061153d565b80601f01602080910402602001604051908101604052809291908181526020018280546104159061153d565b80156104625780601f1061043757610100808354040283529160200191610462565b820191906000526020600020905b81548152906001019060200180831161044557829003601f168201915b5050505050905090565b6000806104776109fb565b9050610484818585610a03565b600191505092915050565b6000600254905090565b6040518060400160405280600481526020017f555344430000000000000000000000000000000000000000000000000000000081525081565b6000806104dd6109fb565b90506104ea858285610a15565b6104f5858585610aa9565b60019150509392505050565b6040518060400160405280600481526020017f555344430000000000000000000000000000000000000000000000000000000081525081565b60006012905090565b600061054d610b9d565b60006006600a61055d91906116d0565b83610568919061171b565b116105a8576040517f08c379a000000000000000000000000000000000000000000000000000000000815260040161059f906117cf565b60405180910390fd5b6105b1306106bf565b6006600a6105bf91906116d0565b836105ca919061171b565b111561060b576040517f08c379a00000000000000000000000000000000000000000000000000000000081526004016106029061183b565b60405180910390fd5b61062d306006600a61061d91906116d0565b84610628919061171b565b610c24565b60019050919050565b60066020528060005260406000206000915054906101000a900460ff1681565b600681565b600080610667336106bf565b9050600081116106ac576040517f08c379a00000000000000000000000000000000000000000000000000000000081526004016106a3906118a7565b60405180910390fd5b6106b7333083610aa9565b600191505090565b60008060008373ffffffffffffffffffffffffffffffffffffffff1673ffffffffffffffffffffffffffffffffffffffff168152602001908152602001600020549050919050565b61070f610b9d565b6107196000610ca6565b565b6000600560009054906101000a900473ffffffffffffffffffffffffffffffffffffffff16905090565b6060600480546107549061153d565b80601f01602080910402602001604051908101604052809291908181526020018280546107809061153d565b80156107cd5780601f106107a2576101008083540402835291602001916107cd565b820191906000526020600020905b8154815290600101906020018083116107b057829003601f168201915b5050505050905090565b6000806006600a6107e891906116d0565b836107f3919061171b565b11610833576040517f08c379a000000000000000000000000000000000000000000000000000000000815260040161082a90611939565b60405180910390fd5b61083c306106bf565b6006600a61084a91906116d0565b83610855919061171b565b1115610896576040517f08c379a000000000000000000000000000000000000000000000000000000000815260040161088d906119a5565b60405180910390fd5b6108b930336006600a6108a991906116d0565b856108b4919061171b565b610aa9565b6108c233610d6c565b60019050919050565b6000806108d66109fb565b90506108e3818585610aa9565b600191505092915050565b6000600160008473ffffffffffffffffffffffffffffffffffffffff1673ffffffffffffffffffffffffffffffffffffffff16815260200190815260200160002060008373ffffffffffffffffffffffffffffffffffffffff1673ffffffffffffffffffffffffffffffffffffffff16815260200190815260200160002054905092915050565b61097d610b9d565b600073ffffffffffffffffffffffffffffffffffffffff168173ffffffffffffffffffffffffffffffffffffffff16036109ef5760006040517f1e4fbdf70000000000000000000000000000000000000000000000000000000081526004016109e691906114b3565b60405180910390fd5b6109f881610ca6565b50565b600033905090565b610a108383836001610dd9565b505050565b6000610a2184846108ee565b90507fffffffffffffffffffffffffffffffffffffffffffffffffffffffffffffffff8114610aa35781811015610a93578281836040517ffb8f41b2000000000000000000000000000000000000000000000000000000008152600401610a8a939291906119c5565b60405180910390fd5b610aa284848484036000610dd9565b5b50505050565b600073ffffffffffffffffffffffffffffffffffffffff168373ffffffffffffffffffffffffffffffffffffffff1603610b1b5760006040517f96c6fd1e000000000000000000000000000000000000000000000000000000008152600401610b1291906114b3565b60405180910390fd5b600073ffffffffffffffffffffffffffffffffffffffff168273ffffffffffffffffffffffffffffffffffffffff1603610b8d5760006040517fec442f05000000000000000000000000000000000000000000000000000000008152600401610b8491906114b3565b60405180910390fd5b610b98838383610fb0565b505050565b610ba56109fb565b73ffffffffffffffffffffffffffffffffffffffff16610bc361071b565b73ffffffffffffffffffffffffffffffffffffffff1614610c2257610be66109fb565b6040517f118cdaa7000000000000000000000000000000000000000000000000000000008152600401610c1991906114b3565b60405180910390fd5b565b600073ffffffffffffffffffffffffffffffffffffffff168273ffffffffffffffffffffffffffffffffffffffff1603610c965760006040517f96c6fd1e000000000000000000000000000000000000000000000000000000008152600401610c8d91906114b3565b60405180910390fd5b610ca282600083610fb0565b5050565b6000600560009054906101000a900473ffffffffffffffffffffffffffffffffffffffff16905081600560006101000a81548173ffffffffffffffffffffffffffffffffffffffff021916908373ffffffffffffffffffffffffffffffffffffffff1602179055508173ffffffffffffffffffffffffffffffffffffffff168173ffffffffffffffffffffffffffffffffffffffff167f8be0079c531659141344cd1fd0a4f28419497f9722a3daafe3b4186f6b6457e060405160405180910390a35050565b610d7e3082610d7961048f565b610a03565b6001600660008373ffffffffffffffffffffffffffffffffffffffff1673ffffffffffffffffffffffffffffffffffffffff16815260200190815260200160002060006101000a81548160ff02191690831515021790555050565b600073ffffffffffffffffffffffffffffffffffffffff168473ffffffffffffffffffffffffffffffffffffffff1603610e4b5760006040517fe602df05000000000000000000000000000000000000000000000000000000008152600401610e4291906114b3565b60405180910390fd5b600073ffffffffffffffffffffffffffffffffffffffff168373ffffffffffffffffffffffffffffffffffffffff1603610ebd5760006040517f94280d62000000000000000000000000000000000000000000000000000000008152600401610eb491906114b3565b60405180910390fd5b81600160008673ffffffffffffffffffffffffffffffffffffffff1673ffffffffffffffffffffffffffffffffffffffff16815260200190815260200160002060008573ffffffffffffffffffffffffffffffffffffffff1673ffffffffffffffffffffffffffffffffffffffff168152602001908152602001600020819055508015610faa578273ffffffffffffffffffffffffffffffffffffffff168473ffffffffffffffffffffffffffffffffffffffff167f8c5be1e5ebec7d5bd14f71427d1e84f3dd0314c0f7b2291e5b200ac8c7c3b92584604051610fa191906113a5565b60405180910390a35b50505050565b600073ffffffffffffffffffffffffffffffffffffffff168373ffffffffffffffffffffffffffffffffffffffff1603611002578060026000828254610ff691906119fc565b925050819055506110d5565b60008060008573ffffffffffffffffffffffffffffffffffffffff1673ffffffffffffffffffffffffffffffffffffffff1681526020019081526020016000205490508181101561108e578381836040517fe450d38c000000000000000000000000000000000000000000000000000000008152600401611085939291906119c5565b60405180910390fd5b8181036000808673ffffffffffffffffffffffffffffffffffffffff1673ffffffffffffffffffffffffffffffffffffffff16815260200190815260200160002081905550505b600073ffffffffffffffffffffffffffffffffffffffff168273ffffffffffffffffffffffffffffffffffffffff160361111e578060026000828254039250508190555061116b565b806000808473ffffffffffffffffffffffffffffffffffffffff1673ffffffffffffffffffffffffffffffffffffffff168152602001908152602001600020600082825401925050819055505b8173ffffffffffffffffffffffffffffffffffffffff168373ffffffffffffffffffffffffffffffffffffffff167fddf252ad1be2c89b69c2b068fc378daa952ba7f163c4a11628f55a4df523b3ef836040516111c891906113a5565b60405180910390a3505050565b600081519050919050565b600082825260208201905092915050565b60005b8381101561120f5780820151818401526020810190506111f4565b60008484015250505050565b6000601f19601f8301169050919050565b6000611237826111d5565b61124181856111e0565b93506112518185602086016111f1565b61125a8161121b565b840191505092915050565b6000602082019050818103600083015261127f818461122c565b905092915050565b600080fd5b600073ffffffffffffffffffffffffffffffffffffffff82169050919050565b60006112b78261128c565b9050919050565b6112c7816112ac565b81146112d257600080fd5b50565b6000813590506112e4816112be565b92915050565b6000819050919050565b6112fd816112ea565b811461130857600080fd5b50565b60008135905061131a816112f4565b92915050565b6000806040838503121561133757611336611287565b5b6000611345858286016112d5565b92505060206113568582860161130b565b9150509250929050565b60008115159050919050565b61137581611360565b82525050565b6000602082019050611390600083018461136c565b92915050565b61139f816112ea565b82525050565b60006020820190506113ba6000830184611396565b92915050565b6000806000606084860312156113d9576113d8611287565b5b60006113e7868287016112d5565b93505060206113f8868287016112d5565b92505060406114098682870161130b565b9150509250925092565b600060ff82169050919050565b61142981611413565b82525050565b60006020820190506114446000830184611420565b92915050565b6000602082840312156114605761145f611287565b5b600061146e8482850161130b565b91505092915050565b60006020828403121561148d5761148c611287565b5b600061149b848285016112d5565b91505092915050565b6114ad816112ac565b82525050565b60006020820190506114c860008301846114a4565b92915050565b600080604083850312156114e5576114e4611287565b5b60006114f3858286016112d5565b9250506020611504858286016112d5565b9150509250929050565b7f4e487b7100000000000000000000000000000000000000000000000000000000600052602260045260246000fd5b6000600282049050600182168061155557607f821691505b6020821081036115685761156761150e565b5b50919050565b7f4e487b7100000000000000000000000000000000000000000000000000000000600052601160045260246000fd5b60008160011c9050919050565b6000808291508390505b60018511156115f4578086048111156115d0576115cf61156e565b5b60018516156115df5780820291505b80810290506115ed8561159d565b94506115b4565b94509492505050565b60008261160d57600190506116c9565b8161161b57600090506116c9565b8160018114611631576002811461163b5761166a565b60019150506116c9565b60ff84111561164d5761164c61156e565b5b8360020a9150848211156116645761166361156e565b5b506116c9565b5060208310610133831016604e8410600b841016171561169f5782820a90508381111561169a5761169961156e565b5b6116c9565b6116ac84848460016115aa565b925090508184048111156116c3576116c261156e565b5b81810290505b9392505050565b60006116db826112ea565b91506116e683611413565b92506117137fffffffffffffffffffffffffffffffffffffffffffffffffffffffffffffffff84846115fd565b905092915050565b6000611726826112ea565b9150611731836112ea565b925082820261173f816112ea565b915082820484148315176117565761175561156e565b5b5092915050565b7f4275726e20616d6f756e74206d7573742062652067726561746572207468616e60008201527f2030000000000000000000000000000000000000000000000000000000000000602082015250565b60006117b96022836111e0565b91506117c48261175d565b604082019050919050565b600060208201905081810360008301526117e8816117ac565b9050919050565b7f496e73756666696369656e742062616c616e636520746f206275726e00000000600082015250565b6000611825601c836111e0565b9150611830826117ef565b602082019050919050565b6000602082019050818103600083015261185481611818565b9050919050565b7f496e73756666696369656e742062616c616e6365000000000000000000000000600082015250565b60006118916014836111e0565b915061189c8261185b565b602082019050919050565b600060208201905081810360008301526118c081611884565b9050919050565b7f4d696e7420616d6f756e74206d7573742062652067726561746572207468616e60008201527f2030000000000000000000000000000000000000000000000000000000000000602082015250565b60006119236022836111e0565b915061192e826118c7565b604082019050919050565b6000602082019050818103600083015261195281611916565b9050919050565b7f496e73756666696369656e7420746f6b656e7320696e20636f6e747261637400600082015250565b600061198f601f836111e0565b915061199a82611959565b602082019050919050565b600060208201905081810360008301526119be81611982565b9050919050565b60006060820190506119da60008301866114a4565b6119e76020830185611396565b6119f46040830184611396565b949350505050565b6000611a07826112ea565b9150611a12836112ea565b9250828201905080821115611a2a57611a2961156e565b5b9291505056fea26469706673582212202e5cbda32a025728c6a3643f5f263d6f8101b1c184d9d2ac527dae38dab5c01064736f6c63430008180033",
  "linkReferences": {},
  "deployedLinkReferences": {}
}